:08000000803102288731DD2F59
:100AFA00640080010131890B7E2D0034FE00120052
:100B0A001E00FE0B842D00340634003405340034F4
:100B1A000434003403340034023400340134003421
:100B2A004034793424343034193412340234783469
:100B3A0000341834BF348634DB34CF34E634ED3431
:100B4A00FD348734FF34E734F43401341434003488
:100B5A0021008F01C0308E000F308D0020008F01E0
:100B6A008E018D0186310426853120000E1FBE2D8F
:100B7A00BF2DC22D86317D2685317B08200039069E
:100B8A00031DC92D7A083806031DCC2DCD2DB72D8E
:100B9A0079083B06031DD32D78083A06031DD62D86
:100BAA00D72DB72D77083D06031DDD2D76083C06A7
:100BBA00031DE02DE12DB72D75083F06031DE72D16
:100BCA0074083E06031DEA2DEB2DB72D7308410666
:100BDA00031DF12D72084006031DF42DF52DB72DC6
:100BEA0071084306031DFB2D70084206031DFE2DE6
:100BFA00FF2DB72D22008D17B72D80310228220034
:100C0A000E148E100E118E110E128E127A082A3EB2
:100C1A008600870101088F008230FC00DE30890BD4
:100C2A00142EFC0B142E22000E108E140E118E118F
:100C3A000E128E1278082A3E8600870101088F005C
:100C4A008230FC00DE30890B282EFC0B282E220075
:100C5A000E108E100E158E110E128E1276082A3E66
:100C6A008600870101088F008230FC00DE30890B84
:100C7A003C2EFC0B3C2E22000E108E100E118E15EF
:100C8A000E128E1274082A3E8600870101088F0010
:100C9A008230FC00DE30890B502EFC0B502E2200D5
:100CAA000E108E100E118E110E168E1272082A3E1A
:100CBA008600870101088F008230FC00DE30890B34
:100CCA00642EFC0B642E22000E108E100E118E1153
:100CDA000E168E1270082A3E8600870101088F00C0
:100CEA008230FC00DE30890B782EFC0B782E08004F
:100CFA007B082000B9007A08B8007908BB00780898
:100D0A00BA007708BD007608BC007508BF007408F1
:100D1A00BE007308C1007208C0007108C3007008E1
:100D2A00C2000D1D992E9A2EAE2E0D199D2E9E2EA5
:100D3A009A2E0130C2070030C33D0D30FD00AF309E
:100D4A00FC00B630890BA72EFC0BA72EFD0BA72E95
:100D5A00003220004308803AFC0080307C02031DE8
:100D6A00B82E06304202031CBB2EBC2EC62E823081
:100D7A00FC00DE30890BBF2EFC0BBF2E2000C20107
:100D8A00C30120000D1CCA2ECB2EDF2E0D18CE2E2D
:100D9A00CF2ECB2EFF30C207FF30C33D0D30FD00F2
:100DAA00AF30FC00B630890BD82EFC0BD82EFD0BC9
:100DBA00D82E00322000C31FE32EE42EC32F823028
:100DCA00FC00DE30890BE72EFC0BE72E06302000F4
:100DDA00C2000030C300C32F22000E148E100E1161
:100DEA008E110E128E127A082A3E86008701010899
:100DFA008F0020008D1C022F032FDC2F0130FA07F1
:100E0A000030FB3D0D30FD00AF30FC00B630890BE1
:100E1A000C2FFC0B0C2FFD0B0C2F0032DC2F2200A9
:100E2A000E108E140E118E110E128E1278082A3E92
:100E3A008600870101088F0020008D1C252F262F90
:100E4A00DC2F0130F8070030F93D0D30FD00AF30DE
:100E5A00FC00B630890B2F2FFC0B2F2FFD0B2F2FE9
:100E6A000032DC2F22000E108E100E158E110E127B
:100E7A008E1276082A3E8600870101088F0020001C
:100E8A008D1C482F492FDC2F0130F6070030F73D23
:100E9A000D30FD00AF30FC00B630890B522FFC0B31
:100EAA00522FFD0B522F0032DC2F22000E108E1013
:100EBA000E118E150E128E1274082A3E86008701B4
:100ECA0001088F0020008D1C6B2F6C2FDC2F013046
:100EDA00F4070030F53D0D30FD00AF30FC00B630B0
:100EEA00890B752FFC0B752FFD0B752F0032DC2F2C
:100EFA0022000E108E100E118E110E168E1272080E
:100F0A002A3E8600870101088F0020008D1C8E2F43
:100F1A008F2FDC2F0130F2070030F33D0D30FD003A
:100F2A00AF30FC00B630890B982FFC0B982FFD0BC5
:100F3A00982F0032DC2F22000E108E100E118E1107
:100F4A000E128E1670082A3E8600870101088F004D
:100F5A0020008D1CB12FB22FDC2F0130F00700309A
:100F6A00F13D0D30FD00AF30FC00B630890BBB2FD0
:100F7A00FC0BBB2FFD0BBB2F0032DC2F4308003AC2
:100F8A000319C82FDC2F4208003A0319F12E013A3F
:100F9A000319142F033A0319372F013A03195A2F49
:100FAA00073A03197D2F013A0319A02FDC2F0800F5
:100FBA0089308400853085007030860000308700D3
:100FCA000C30853183258731953084008530850042
:100FDA00203086000030870018308531832587311C
:100FEA0038308400003085000E3085317D25873108
:060FFA0020008531AD2D41
:020000040001F9
:04000E00E23FFF3E90
:00000001FF
