:08000000803102288731E72F4F
:100AB60005340034FE0012001E00FE0B5E2D0034CD
:100AC60040347934243430341934123402347834CE
:100AD60000341834BF348634DB34CF34E634ED3496
:100AE600FD348734FF34E7347F3021008E008D01DA
:100AF6008F0123008D0120008D018E018F010E1ABA
:100B0600852D862DC32E8E1A892D8A2DC32E0E185D
:100B16008D2D902D22008F16922D22008F122000EF
:100B26008E18962D992D22000F179B2D22000F133C
:100B360020000E199F2DA22D22008F17A42D220012
:100B46008F13C32E22000D080139F400F501740835
:100B5600F0007508F1002130F4007630890BB12DD4
:100B6600F40BB12D003222008D18BA2DBD2D2200B6
:100B76000D14BF2D22000D102130F4007630890BA4
:100B8600C22DF40BC22D003222000D19CB2DCE2D15
:100B960022008D14D02D22008D102130F4007630E5
:100BA600890BD32DF40BD32D003222008D19DC2DA9
:100BB600DF2D22000D15E12D22000D112130F4004C
:100BC6007630890BE42DF40BE42D003222000D1A49
:100BD600ED2DF02D22008D15F22D22008D112130E4
:100BE600F4007630890BF52DF40BF52D003222003A
:100BF6008D1AFE2D012E22000D16032E22000D1237
:100C06002130F4007630890B062EF40B062E0032C6
:100C160022000D1B0F2E122E22008D16142E2200DE
:100C26008D122130F4007630890B172EF40B172E17
:100C3600003222008D1B202E232E22000D17252E7A
:100C460022000D132130F4007630890B282EF40B88
:100C5600282E003222000F18312E342E22008D1736
:100C6600362E22008D132130F4007630890B392E72
:100C7600F40B392E003222008F18422E452E220008
:100C86000F14472E22000F102130F4007630890B06
:100C96004A2EF40B4A2E003222000F19532E562EDE
:100CA60022008F14582E22008F102130F400763047
:100CB600890B5B2EF40B5B2E003222008F19642EFB
:100CC600672E22000F15692E22000F112130F40025
:100CD6007630890B6C2EF40B6C2E003222000F1A24
:100CE600752E782E22008F157A2E22008F11213034
:100CF600F4007630890B7D2EF40B7D2E0032220017
:100D06008F1A862E892E22000F168B2E22000F1286
:100D16002130F4007630890B8E2EF40B8E2E0032A5
:100D260022000F1B972E9A2E22008F169C2E220031
:100D36008F122130F4007630890B9F2EF40B9F2EF4
:100D4600003222008F1BA82EAB2E22000F17AD2ECD
:100D560022000F132130F4007630890BB02EF40BED
:100D6600B02E0032700C2200031C8F1303188F174D
:100D76002130F4007630890BBE2EF40BBE2E0032E5
:100D860020000E1AC72EC82EA52DDF2F22000F0D0C
:100D96000F0D0139F400F5017408F0007508F10033
:100DA6000F1BD62ED92E22008F17DB2E22008F1373
:100DB6002130F4007630890BDE2EF40BDE2E003265
:100DC60022008F1AE72EEA2E22000F17EC2E2200A1
:100DD6000F132130F4007630890BEF2EF40BEF2E33
:100DE600003222000F1AF82EFB2E22008F16FD2E3F
:100DF60022008F122130F4007630890B002FF40B7D
:100E0600002F003222008F19092F0C2F22000F16F7
:100E16000E2F22000F122130F4007630890B112F8D
:100E2600F40B112F003222000F191A2F1D2F22004A
:100E36008F151F2F22008F112130F4007630890B79
:100E4600222FF40B222F003222008F182B2F2E2F49
:100E560022000F15302F22000F112130F4007630BA
:100E6600890B332FF40B332F003222000F183C2F3F
:100E76003F2F22008F14412F22008F102130F400C3
:100E86007630890B442FF40B442F003222008D1B41
:100E96004D2F502F22000F14522F22000F102130F9
:100EA600F4007630890B552FF40B552F00322200B3
:100EB6000D1B5E2F612F22008D17632F22008D13CD
:100EC6002130F4007630890B662FF40B662F003242
:100ED60022008D1A6F2F722F22000D17742F2200F9
:100EE6000D132130F4007630890B772FF40B772F12
:100EF600003222000D1A802F832F22008D16852F97
:100F060022008D122130F4007630890B882FF40BE5
:100F1600882F003222008D19912F942F22000D1652
:100F2600962F22000D122130F4007630890B992F6E
:100F3600F40B992F003222000D19A22FA52F2200A3
:100F46008D15A72F22008D112130F4007630890BE4
:100F5600AA2FF40BAA2F003222008D18B32FB62F1A
:100F660022000D15B82F22000D112130F400763025
:100F7600890BBB2FF40BBB2F003222000D18C42F98
:100F8600C72F22008D14C92F22008D102130F400A6
:100F96007630890BCC2FF40BCC2F0032700C22004C
:100FA600031C0D1003180D142130F4007630890B44
:100FB600DA2FF40BDA2F003220008E1AE32FE42FFB
:100FC600C92E822D8031022885315B258731F200BA
:100FD60085315C258731F3006330840085308500D8
:100FE6002030860000308700143085315D2587313A
:0A0FF600F001F10120008531772D94
:020000040001F9
:04000E00E23FFF3E90
:00000001FF
