:08000000803102288731F92F3D
:100E9A000A3421008F0120008F014130F100EE3029
:100EAA00890B552FF10B552F0032013020008F008E
:100EBA004130F100EE30890B602FF10B602F0032C8
:100ECA00023020008F004130F100EE30890B6B2F89
:100EDA00F10B6B2F0032043020008F004130F100FB
:100EEA00EE30890B762FF10B762F00320830200076
:100EFA008F004130F100EE30890B812FF10B812FE9
:100F0A000032103020008F004130F100EE30890BA2
:100F1A008C2FF10B8C2F0032203020008F004130B3
:100F2A00F100EE30890B972FF10B972F00324030EA
:100F3A0020008F004130F100EE30890BA22FF10B17
:100F4A00A22F0032803020008F004130F100EE30B5
:100F5A00890BAD2FF10BAD2F0032403020008F00EE
:100F6A004130F100EE30890BB82FF10BB82F003267
:100F7A00203020008F004130F100EE30890BC32F62
:100F8A00F10BC32F0032103020008F004130F100E6
:100F9A00EE30890BCE2FF10BCE2F00320830200015
:100FAA008F004130F100EE30890BD92FF10BD92F88
:100FBA000032043020008F004130F100EE30890BFE
:100FCA00E42FF10BE42F0032023020008F00413071
:100FDA00F100EE30890BEF2FF10BEF2F00320130C9
:100FEA0020008F008031022887314D278731F00099
:060FFA00200087314E2F9C
:020000040001F9
:04000E00E23FFF3E90
:00000001FF
