:08000000803102288731FD2F39
:100F06000C3021008C0020008C0123008C01200075
:100F16008C1D8E2F902F0130912F0030F0000C1D6C
:100F2600952F972F0130982F003070050038031940
:100F36009D2F9E2FA82F22008C012130F0007630A5
:100F4600890BA32FF00BA32F003220008C1DAC2F92
:100F5600AE2F0130AF2F0030F0000C19B32FB52F94
:100F66000130B62F0030700500380319BB2FBC2F97
:100F7600C72F013022008C002130F0007630890B1B
:100F8600C22FF00BC22F003220008C19CB2FCD2F91
:100F96000130CE2F0030F0000C1DD22FD42F01309F
:100FA600D52F0030700500380319DA2FDB2FE62F16
:100FB600023022008C002130F0007630890BE12FC0
:100FC600F00BE12F0032013020000C1D00398C1D82
:100FD6000039091CEF2FF02FFB2F033022008C0065
:100FE6002130F0007630890BF62FF00BF62F003209
:0A0FF6008031022820008731832F8C
:020000040001F9
:04000E00E23FFF3E90
:00000001FF
