:08000000803102288731F52F41
:100AA00005340A3422000E148E140E158E150E1203
:100AB0008E120E138E130E108E100E118E110E123A
:100AC0008E120E138E13080022000E108E100E11BF
:100AD0008E110E168E160E178E170E108E100E110A
:100AE0008E110E128E120E138E13080022000E1499
:100AF0008E140E118E110E168E160E138E130E10EE
:100B00008E100E118E110E128E120E138E130800FF
:100B100022000E108E100E158E150E128E120E174C
:100B20008E170E108E100E118E110E128E120E13C5
:100B30008E13080022000E108E100E118E110E1250
:100B40008E120E138E134130F000EE30890BA62D5D
:100B5000F00BA62D003222000E148E140E158E15E9
:100B60000E168E160E178E174130F000EE30890BE0
:100B7000B72DF00BB72D0032080022000E108E1496
:100B80000E118E150E128E160E138E174130F000B8
:100B9000EE30890BC92DF00BC92D003222000E104A
:100BA0008E100E118E110E128E120E138E134130F6
:100BB000F000EE30890BDA2DF00BDA2D0032080050
:100BC00022000E148E100E158E110E168E120E1798
:100BD0008E134130F000EE30890BEC2DF00BEC2D34
:100BE000003222000E108E100E118E110E128E1277
:100BF0000E138E134130F000EE30890BFD2DF00BFB
:100C0000FD2D0032080022000E148E140E158E11D8
:100C10000E128E120E138E130E108E140E158E15CC
:100C20000E128E120E138E130E108E100E158E15C0
:100C30000E168E120E138E130E108E100E118E15B0
:100C40000E168E160E138E138E100E118E110E169A
:100C50008E160E178E130E108E100E118E110E1290
:100C60008E160E178E170E148E100E118E110E1278
:100C70008E120E178E170E148E140E118E110E1268
:100C80008E120E138E17080022000E108E100E11F9
:100C90008E110E128E120E138E170E108E100E1154
:100CA0008E110E128E120E178E130E108E100E1144
:100CB0008E110E128E160E138E130E108E100E1134
:100CC0008E110E168E120E138E130E108E100E1124
:100CD0008E150E128E120E138E130E108E100E1510
:100CE0008E110E128E120E138E130E108E140E1104
:100CF0008E110E128E120E138E130E148E100E11F4
:100D00008E110E128E120E138E13080022000E107A
:100D10008E100E118E110E128E120E178E170E10CF
:100D20008E100E118E110E128E160E178E130E10BF
:100D30008E100E118E110E168E160E138E130E10AF
:100D40008E100E118E150E168E120E138E130E109F
:100D50008E100E158E150E128E120E138E130E108F
:100D60008E140E158E110E128E120E138E130E147B
:100D70008E140E118E110E128E120E138E130E146F
:100D80008E100E118E110E128E120E138E17080079
:100D9000F12E85319A258631162F8531BD25863174
:100DA000162F8531E0258631162F85315225863163
:100DB000162F853164258631162F853176258631AB
:100DC000162F853188258631162F863144268631A7
:100DD000162F863186268631162F863103268631D8
:100DE000162F7208003A0319F62E162F7108003AD2
:100DF0000319C92E013A0319CD2E033A0319D12E36
:100E0000013A0319D52E073A0319D92E013A0319CD
:100E1000DD2E033A0319E12E013A0319E52E0F3AAC
:100E20000319E92E013A0319ED2E162F08000F3091
:100E300021008D0020008D0121008E0120008E01F7
:100E400023008D01F301F40120000D18282F292F14
:100E5000372F8D182C2F2D2F372F0D19302F312F85
:100E6000372F8D19342F352F372FF301F4010D183B
:100E70003A2F3B2F4B2F8D183E2F3F2F4B2F0D1905
:100E8000422F432F4B2F8D1D462F472F4B2F0130C5
:100E9000F3000030F4000D184E2F4F2F5F2F8D18E8
:100EA000522F532F5F2F0D1D562F572F5F2F8D1948
:100EB0005A2F5B2F5F2F0230F3000030F4000D1823
:100EC000622F632F732F8D18662F672F732F0D1DC1
:100ED0006A2F6B2F732F8D1D6E2F6F2F732F033083
:100EE000F3000030F4000D18762F772F872F8D1C1C
:100EF0007A2F7B2F872F0D197E2F7F2F872F8D190C
:100F0000822F832F872F0430F3000030F4000D1858
:100F10008A2F8B2F9B2F8D1C8E2F8F2F9B2F0D1980
:100F2000922F932F9B2F8D1D962F972F9B2F053040
:100F3000F3000030F4000D189E2F9F2FAF2F8D1C53
:100F4000A22FA32FAF2F0D1DA62FA72FAF2F8D19C7
:100F5000AA2FAB2FAF2F0630F3000030F4000D188E
:100F6000B22FB32FC32F8D1CB62FB72FC32F0D1D3C
:100F7000BA2FBB2FC32F8D1DBE2FBF2FC32F0730FE
:100F8000F3000030F4000D1CC62FC72FD72F8D188B
:100F9000CA2FCB2FD72F0D19CE2FCF2FD72F8D198B
:100FA000D22FD32FD72F0830F3000030F4000D1CC0
:100FB000DA2FDB2FEB2F8D18DE2FDF2FEB2F0D1904
:100FC000E22FE32FEB2F8D1DE62FE72FEB2F0930BC
:100FD000F3000030F4007408F2007308F100863169
:100FE000C8268731242F803102288531502587314A
:100FF000F500853151258731F60020008731172F04
:020000040001F9
:04000E00E23FFF3E90
:00000001FF
