:08000000803102288731F72F3F
:100EC400883421008F0122008F01F001F1010430E8
:100ED400F5007430F4001930890B6E2FF40B6E2F6B
:100EE400F50B6E2F00000130F400700A7A2FF435F0
:100EF400890B792F7408F500750822008F040430DB
:100F0400F5007430F4001930890B862FF40B862F0A
:100F1400F50B862F00000130F400700A922FF4358F
:100F2400890B912F7408FF3AF500750822008F058C
:100F3400073070067104031DA02FA12FE02F063087
:100F4400F2000030F3000430F5007430F40019307E
:100F5400890BAA2FF40BAA2FF50BAA2F000001303E
:100F6400F400720AB62FF435890BB52F7408F50016
:100F7400750822008F040430F5007430F400193031
:100F8400890BC22FF40BC22FF50BC22F00000130C6
:100F9400F400720ACE2FF435890BCD2F7408FF3A72
:100FA400F500750822008F05FF30F207FF30F33D8E
:100FB400F31FDD2FDE2FA52FF001F1010630F20023
:100FC4000030F3000130F0070030F13D7108803A41
:100FD400F40080307402031DF12F08307002031CEA
:100FE400F42FF52F692F803102288731622787314A
:0C0FF400F600F201F30120008731632FAA
:020000040001F9
:04000E00E23FFF3E90
:00000001FF
