:08000000803102288731E22F54
:100C420003340034FE0012001E00FE0B242E00347A
:100C52004034793424343034193412340234783440
:100C620000341834BF348634DB34CF34E634ED3408
:100C7200FD348734FF34E73421008D0123008D01D8
:100C820021000C1023000C1021008C1023008C106A
:100C920021000C1523000C1121008C1523008C114E
:100CA20020000C1D552E562E982E8C19592E5A2E78
:100CB200982EF001F10122008C100C1472082A3EC9
:100CC2008600870101088D001430F9007A30890B03
:100CD200682EF90B682E22008C140C1074082A3E20
:100CE2008600870101088D001430F9007A30890BE3
:100CF200782EF90B782E0130F4070030F53D0930DB
:100D020074067504031D862E872E8D2E0130F20780
:100D12000030F33DF401F5010A3072067304031D3D
:100D2200932E942E982EF201F301F401F501200086
:100D32000C199C2E9D2EE52E8C1DA02EA12EE52E8B
:100D42000130F0000030F10022008C100C14720807
:100D52002A3E8600870101088D001430F9007A309E
:100D6200890BB12EF90BB12E22008C140C107408D1
:100D72002A3E8600870101088D001430F9007A307E
:100D8200890BC12EF90BC12EFF30F407FF30F53D60
:100D920074087504031DCE2ECF2ED72EFF30F20716
:100DA200FF30F33D0930F4000030F500720873049F
:100DB200031DDC2EDD2EE52E0930F2000030F3009B
:100DC2000930F4000030F50020000C1DE92EEA2E57
:100DD200122F8C1DED2EEE2E122F0230F00000305D
:100DE200F10022008C100C1472082A3E8600870142
:100DF20001088D001430F9007A30890BFE2EF90BB0
:100E0200FE2E22008C140C1074082A3E86008701E4
:100E120001088D001430F9007A30890B0E2FF90B7E
:100E22000E2F20000C19162F172F512E8C191A2F46
:100E32001B2F512E70087104031D202F212F6B2FA1
:100E420022008C100C1472082A3E860087010108C9
:100E52008D001430F9007A30890B2D2FF90B2D2FCC
:100E620022008C140C1074082A3E860087010108A7
:100E72008D001430F9007A30890B3D2FF90B3D2F8C
:100E82007408023EF4000030753DF5007508803AA2
:100E9200F90080307902031D502F0A307402031CBE
:100EA200532F542F5A2F0130F2070030F33DF40133
:100EB200F5017308803AF90080307902031D632F2F
:100EC2000A307202031C662F672F6B2FF201F301A7
:100ED200F401F50170037104031D702F712FB82FF7
:100EE20022008C100C1472082A3E86008701010829
:100EF2008D001430F9007A30890B7D2FF90B7D2F8C
:100F020022008C140C1074082A3E86008701010806
:100F12008D001430F9007A30890B8D2FF90B8D2F4B
:100F22007408FE3EF400FF30753DF5007508803A06
:100F3200F90080307902031DA02F013074020318DA
:100F4200A32FA42FAC2FFF30F207FF30F33D09305F
:100F5200F4000030F500F31FAF2FB02FB82F093087
:100F6200F2000030F3000930F4000030F5000230E6
:100F720070067104031DBE2FBF2F512E22008C104C
:100F82000C1472082A3E8600870101088D00143075
:100F9200F9007A30890BCB2FF90BCB2F22008C145E
:100FA2000C1074082A3E8600870101088D00143057
:100FB200F9007A30890BDB2FF90BDB2F512E8031B0
:100FC2000228863121268731F70086312226873191
:100FD200F8002930840086308500203086000030F9
:100FE20087001430863123268731F001F101F201A6
:0E0FF200F301F401F501F601200086313D2ED9
:020000040001F9
:04000E00E23FFF3E90
:00000001FF
